{
  "_format": "hh-sol-artifact-1",
  "contractName": "DEX",
  "sourceName": "contracts/DEX.sol",
  "abi": [
    {
      "inputs": [
        {
          "internalType": "address",
          "name": "_token1",
          "type": "address"
        },
        {
          "internalType": "address",
          "name": "_token2",
          "type": "address"
        }
      ],
      "stateMutability": "nonpayable",
      "type": "constructor"
    },
    {
      "inputs": [
        {
          "internalType": "uint256",
          "name": "amount1",
          "type": "uint256"
        },
        {
          "internalType": "uint256",
          "name": "amount2",
          "type": "uint256"
        }
      ],
      "name": "addLiquidity",
      "outputs": [],
      "stateMutability": "nonpayable",
      "type": "function"
    },
    {
      "inputs": [],
      "name": "getReserves",
      "outputs": [
        {
          "internalType": "uint256",
          "name": "_reserve1",
          "type": "uint256"
        },
        {
          "internalType": "uint256",
          "name": "_reserve2",
          "type": "uint256"
        }
      ],
      "stateMutability": "view",
      "type": "function"
    },
    {
      "inputs": [
        {
          "internalType": "address",
          "name": "",
          "type": "address"
        }
      ],
      "name": "liquidityShares",
      "outputs": [
        {
          "internalType": "uint256",
          "name": "",
          "type": "uint256"
        }
      ],
      "stateMutability": "view",
      "type": "function"
    },
    {
      "inputs": [
        {
          "internalType": "uint256",
          "name": "shares",
          "type": "uint256"
        }
      ],
      "name": "removeLiquidity",
      "outputs": [],
      "stateMutability": "nonpayable",
      "type": "function"
    },
    {
      "inputs": [],
      "name": "reserve1",
      "outputs": [
        {
          "internalType": "uint256",
          "name": "",
          "type": "uint256"
        }
      ],
      "stateMutability": "view",
      "type": "function"
    },
    {
      "inputs": [],
      "name": "reserve2",
      "outputs": [
        {
          "internalType": "uint256",
          "name": "",
          "type": "uint256"
        }
      ],
      "stateMutability": "view",
      "type": "function"
    },
    {
      "inputs": [
        {
          "internalType": "address",
          "name": "tokenIn",
          "type": "address"
        },
        {
          "internalType": "uint256",
          "name": "amountIn",
          "type": "uint256"
        },
        {
          "internalType": "uint256",
          "name": "minAmountOut",
          "type": "uint256"
        }
      ],
      "name": "swap",
      "outputs": [],
      "stateMutability": "nonpayable",
      "type": "function"
    },
    {
      "inputs": [],
      "name": "token1",
      "outputs": [
        {
          "internalType": "address",
          "name": "",
          "type": "address"
        }
      ],
      "stateMutability": "view",
      "type": "function"
    },
    {
      "inputs": [],
      "name": "token2",
      "outputs": [
        {
          "internalType": "address",
          "name": "",
          "type": "address"
        }
      ],
      "stateMutability": "view",
      "type": "function"
    },
    {
      "inputs": [],
      "name": "totalLiquidity",
      "outputs": [
        {
          "internalType": "uint256",
          "name": "",
          "type": "uint256"
        }
      ],
      "stateMutability": "view",
      "type": "function"
    }
  ],
  "bytecode": "0x608060405234801561001057600080fd5b50604051611bd9380380611bd98339818101604052810190610032919061030e565b600073ffffffffffffffffffffffffffffffffffffffff168273ffffffffffffffffffffffffffffffffffffffff161415801561009c5750600073ffffffffffffffffffffffffffffffffffffffff168173ffffffffffffffffffffffffffffffffffffffff1614155b6100db576040517f08c379a00000000000000000000000000000000000000000000000000000000081526004016100d2906103ab565b60405180910390fd5b816000806101000a81548173ffffffffffffffffffffffffffffffffffffffff021916908373ffffffffffffffffffffffffffffffffffffffff16021790555080600160006101000a81548173ffffffffffffffffffffffffffffffffffffffff021916908373ffffffffffffffffffffffffffffffffffffffff16021790555060008054906101000a900473ffffffffffffffffffffffffffffffffffffffff1673ffffffffffffffffffffffffffffffffffffffff166323b872dd33306002546040518463ffffffff1660e01b81526004016101bb939291906103f3565b6020604051808303816000875af11580156101da573d6000803e3d6000fd5b505050506040513d601f19601f820116820180604052508101906101fe9190610462565b50600160009054906101000a900473ffffffffffffffffffffffffffffffffffffffff1673ffffffffffffffffffffffffffffffffffffffff166323b872dd33306003546040518463ffffffff1660e01b8152600401610260939291906103f3565b6020604051808303816000875af115801561027f573d6000803e3d6000fd5b505050506040513d601f19601f820116820180604052508101906102a39190610462565b50505061048f565b600080fd5b600073ffffffffffffffffffffffffffffffffffffffff82169050919050565b60006102db826102b0565b9050919050565b6102eb816102d0565b81146102f657600080fd5b50565b600081519050610308816102e2565b92915050565b60008060408385031215610325576103246102ab565b5b6000610333858286016102f9565b9250506020610344858286016102f9565b9150509250929050565b600082825260208201905092915050565b7f496e76616c696420746f6b656e20616464726573730000000000000000000000600082015250565b600061039560158361034e565b91506103a08261035f565b602082019050919050565b600060208201905081810360008301526103c481610388565b9050919050565b6103d4816102d0565b82525050565b6000819050919050565b6103ed816103da565b82525050565b600060608201905061040860008301866103cb565b61041560208301856103cb565b61042260408301846103e4565b949350505050565b60008115159050919050565b61043f8161042a565b811461044a57600080fd5b50565b60008151905061045c81610436565b92915050565b600060208284031215610478576104776102ab565b5b60006104868482850161044d565b91505092915050565b61173b8061049e6000396000f3fe608060405234801561001057600080fd5b506004361061009e5760003560e01c80639c8f9f23116100665780639c8f9f231461013a5780639cd441da146101565780639db4aa04146101725780639f1d0f59146101a2578063d21220a7146101be5761009e565b80630902f1ac146100a357806315770f92146100c257806325be124e146100e05780635a76f25e146100fe5780635c0b9a2b1461011c575b600080fd5b6100ab6101dc565b6040516100b9929190610f76565b60405180910390f35b6100ca6101ed565b6040516100d79190610f9f565b60405180910390f35b6100e86101f3565b6040516100f59190610ffb565b60405180910390f35b610106610219565b6040516101139190610f9f565b60405180910390f35b61012461021f565b6040516101319190610f9f565b60405180910390f35b610154600480360381019061014f9190611047565b610225565b005b610170600480360381019061016b9190611074565b6104cb565b005b61018c600480360381019061018791906110e0565b610740565b6040516101999190610f9f565b60405180910390f35b6101bc60048036038101906101b7919061110d565b610758565b005b6101c6610db1565b6040516101d39190610ffb565b60405180910390f35b600080600254600354915091509091565b60055481565b600160009054906101000a900473ffffffffffffffffffffffffffffffffffffffff1681565b60025481565b60035481565b80600460003373ffffffffffffffffffffffffffffffffffffffff1673ffffffffffffffffffffffffffffffffffffffff1681526020019081526020016000205410156102a7576040517f08c379a000000000000000000000000000000000000000000000000000000000815260040161029e906111bd565b60405180910390fd5b6000600554826002546102ba919061120c565b6102c4919061127d565b90506000600554836003546102d9919061120c565b6102e3919061127d565b905081600260008282546102f791906112ae565b92505081905550806003600082825461031091906112ae565b9250508190555082600460003373ffffffffffffffffffffffffffffffffffffffff1673ffffffffffffffffffffffffffffffffffffffff168152602001908152602001600020600082825461036691906112ae565b92505081905550826005600082825461037f91906112ae565b9250508190555060008054906101000a900473ffffffffffffffffffffffffffffffffffffffff1673ffffffffffffffffffffffffffffffffffffffff1663a9059cbb33846040518363ffffffff1660e01b81526004016103e19291906112e2565b6020604051808303816000875af1158015610400573d6000803e3d6000fd5b505050506040513d601f19601f820116820180604052508101906104249190611343565b50600160009054906101000a900473ffffffffffffffffffffffffffffffffffffffff1673ffffffffffffffffffffffffffffffffffffffff1663a9059cbb33836040518363ffffffff1660e01b81526004016104829291906112e2565b6020604051808303816000875af11580156104a1573d6000803e3d6000fd5b505050506040513d601f19601f820116820180604052508101906104c59190611343565b50505050565b6000821180156104db5750600081115b61051a576040517f08c379a0000000000000000000000000000000000000000000000000000000008152600401610511906113bc565b60405180910390fd5b60008054906101000a900473ffffffffffffffffffffffffffffffffffffffff1673ffffffffffffffffffffffffffffffffffffffff166323b872dd3330856040518463ffffffff1660e01b8152600401610577939291906113dc565b6020604051808303816000875af1158015610596573d6000803e3d6000fd5b505050506040513d601f19601f820116820180604052508101906105ba9190611343565b50600160009054906101000a900473ffffffffffffffffffffffffffffffffffffffff1673ffffffffffffffffffffffffffffffffffffffff166323b872dd3330846040518463ffffffff1660e01b815260040161061a939291906113dc565b6020604051808303816000875af1158015610639573d6000803e3d6000fd5b505050506040513d601f19601f8201168201806040525081019061065d9190611343565b506000806005540361067c5781836106759190611413565b905061069a565b6002546005548461068d919061120c565b610697919061127d565b90505b80600460003373ffffffffffffffffffffffffffffffffffffffff1673ffffffffffffffffffffffffffffffffffffffff16815260200190815260200160002060008282546106e99190611413565b9250508190555080600560008282546107029190611413565b92505081905550826002600082825461071b9190611413565b9250508190555081600360008282546107349190611413565b92505081905550505050565b60046020528060005260406000206000915090505481565b6000821161079b576040517f08c379a000000000000000000000000000000000000000000000000000000000815260040161079290611493565b60405180910390fd5b60008060009054906101000a900473ffffffffffffffffffffffffffffffffffffffff1673ffffffffffffffffffffffffffffffffffffffff168473ffffffffffffffffffffffffffffffffffffffff1614905080806108485750600160009054906101000a900473ffffffffffffffffffffffffffffffffffffffff1673ffffffffffffffffffffffffffffffffffffffff168473ffffffffffffffffffffffffffffffffffffffff16145b610887576040517f08c379a000000000000000000000000000000000000000000000000000000000815260040161087e906114ff565b60405180910390fd5b6000808261089a576003546002546108a1565b6002546003545b9150915060006103e5866108b5919061120c565b90506000816103e8856108c8919061120c565b6108d29190611413565b83836108de919061120c565b6108e8919061127d565b90506109296040518060400160405280600a81526020017f72657365727665496e3a0000000000000000000000000000000000000000000081525085610dd5565b6109686040518060400160405280600b81526020017f726573657276654f75743a00000000000000000000000000000000000000000081525084610dd5565b6109a76040518060400160405280600981526020017f616d6f756e74496e3a000000000000000000000000000000000000000000000081525088610dd5565b6109e66040518060400160405280601081526020017f616d6f756e74496e576974684665653a0000000000000000000000000000000081525083610dd5565b610a256040518060400160405280600a81526020017f616d6f756e744f75743a0000000000000000000000000000000000000000000081525082610dd5565b610a646040518060400160405280600d81526020017f6d696e416d6f756e744f75743a0000000000000000000000000000000000000081525087610dd5565b610ac36040518060400160405280600781526020017f746f6b656e313a0000000000000000000000000000000000000000000000000081525060008054906101000a900473ffffffffffffffffffffffffffffffffffffffff16610e71565b610b246040518060400160405280600781526020017f746f6b656e323a00000000000000000000000000000000000000000000000000815250600160009054906101000a900473ffffffffffffffffffffffffffffffffffffffff16610e71565b610b636040518060400160405280600881526020017f746f6b656e496e3a00000000000000000000000000000000000000000000000081525089610e71565b85811015610ba6576040517f08c379a0000000000000000000000000000000000000000000000000000000008152600401610b9d9061156b565b60405180910390fd5b60008111610be9576040517f08c379a0000000000000000000000000000000000000000000000000000000008152600401610be0906115d7565b60405180910390fd5b8415610c26578660026000828254610c019190611413565b925050819055508060036000828254610c1a91906112ae565b92505081905550610c59565b8660036000828254610c389190611413565b925050819055508060026000828254610c5191906112ae565b925050819055505b8773ffffffffffffffffffffffffffffffffffffffff166323b872dd33308a6040518463ffffffff1660e01b8152600401610c96939291906113dc565b6020604051808303816000875af1158015610cb5573d6000803e3d6000fd5b505050506040513d601f19601f82011682018060405250810190610cd99190611343565b5084610d055760008054906101000a900473ffffffffffffffffffffffffffffffffffffffff16610d29565b600160009054906101000a900473ffffffffffffffffffffffffffffffffffffffff165b73ffffffffffffffffffffffffffffffffffffffff1663a9059cbb33836040518363ffffffff1660e01b8152600401610d639291906112e2565b6020604051808303816000875af1158015610d82573d6000803e3d6000fd5b505050506040513d601f19601f82011682018060405250810190610da69190611343565b505050505050505050565b60008054906101000a900473ffffffffffffffffffffffffffffffffffffffff1681565b610e6d8282604051602401610deb929190611676565b6040516020818303038152906040527fb60e72cc000000000000000000000000000000000000000000000000000000007bffffffffffffffffffffffffffffffffffffffffffffffffffffffff19166020820180517bffffffffffffffffffffffffffffffffffffffffffffffffffffffff8381831617835250505050610f0d565b5050565b610f098282604051602401610e879291906116a6565b6040516020818303038152906040527f319af333000000000000000000000000000000000000000000000000000000007bffffffffffffffffffffffffffffffffffffffffffffffffffffffff19166020820180517bffffffffffffffffffffffffffffffffffffffffffffffffffffffff8381831617835250505050610f0d565b5050565b610f2481610f1c610f27610f48565b63ffffffff16565b50565b60006a636f6e736f6c652e6c6f679050600080835160208501845afa505050565b610f53819050919050565b610f5b6116d6565b565b6000819050919050565b610f7081610f5d565b82525050565b6000604082019050610f8b6000830185610f67565b610f986020830184610f67565b9392505050565b6000602082019050610fb46000830184610f67565b92915050565b600073ffffffffffffffffffffffffffffffffffffffff82169050919050565b6000610fe582610fba565b9050919050565b610ff581610fda565b82525050565b60006020820190506110106000830184610fec565b92915050565b600080fd5b61102481610f5d565b811461102f57600080fd5b50565b6000813590506110418161101b565b92915050565b60006020828403121561105d5761105c611016565b5b600061106b84828501611032565b91505092915050565b6000806040838503121561108b5761108a611016565b5b600061109985828601611032565b92505060206110aa85828601611032565b9150509250929050565b6110bd81610fda565b81146110c857600080fd5b50565b6000813590506110da816110b4565b92915050565b6000602082840312156110f6576110f5611016565b5b6000611104848285016110cb565b91505092915050565b60008060006060848603121561112657611125611016565b5b6000611134868287016110cb565b935050602061114586828701611032565b925050604061115686828701611032565b9150509250925092565b600082825260208201905092915050565b7f496e73756666696369656e742073686172657300000000000000000000000000600082015250565b60006111a7601383611160565b91506111b282611171565b602082019050919050565b600060208201905081810360008301526111d68161119a565b9050919050565b7f4e487b7100000000000000000000000000000000000000000000000000000000600052601160045260246000fd5b600061121782610f5d565b915061122283610f5d565b925082820261123081610f5d565b91508282048414831517611247576112466111dd565b5b5092915050565b7f4e487b7100000000000000000000000000000000000000000000000000000000600052601260045260246000fd5b600061128882610f5d565b915061129383610f5d565b9250826112a3576112a261124e565b5b828204905092915050565b60006112b982610f5d565b91506112c483610f5d565b92508282039050818111156112dc576112db6111dd565b5b92915050565b60006040820190506112f76000830185610fec565b6113046020830184610f67565b9392505050565b60008115159050919050565b6113208161130b565b811461132b57600080fd5b50565b60008151905061133d81611317565b92915050565b60006020828403121561135957611358611016565b5b60006113678482850161132e565b91505092915050565b7f416d6f756e7473206d7573742062652067726561746572207468616e20300000600082015250565b60006113a6601e83611160565b91506113b182611370565b602082019050919050565b600060208201905081810360008301526113d581611399565b9050919050565b60006060820190506113f16000830186610fec565b6113fe6020830185610fec565b61140b6040830184610f67565b949350505050565b600061141e82610f5d565b915061142983610f5d565b9250828201905080821115611441576114406111dd565b5b92915050565b7f416d6f756e74206d7573742062652067726561746572207468616e2030000000600082015250565b600061147d601d83611160565b915061148882611447565b602082019050919050565b600060208201905081810360008301526114ac81611470565b9050919050565b7f496e76616c696420746f6b656e00000000000000000000000000000000000000600082015250565b60006114e9600d83611160565b91506114f4826114b3565b602082019050919050565b60006020820190508181036000830152611518816114dc565b9050919050565b7f536c697070616765206578636565646564000000000000000000000000000000600082015250565b6000611555601183611160565b91506115608261151f565b602082019050919050565b6000602082019050818103600083015261158481611548565b9050919050565b7f496e73756666696369656e74206f757470757420616d6f756e74000000000000600082015250565b60006115c1601a83611160565b91506115cc8261158b565b602082019050919050565b600060208201905081810360008301526115f0816115b4565b9050919050565b600081519050919050565b60005b83811015611620578082015181840152602081019050611605565b60008484015250505050565b6000601f19601f8301169050919050565b6000611648826115f7565b6116528185611160565b9350611662818560208601611602565b61166b8161162c565b840191505092915050565b60006040820190508181036000830152611690818561163d565b905061169f6020830184610f67565b9392505050565b600060408201905081810360008301526116c0818561163d565b90506116cf6020830184610fec565b9392505050565b7f4e487b7100000000000000000000000000000000000000000000000000000000600052605160045260246000fdfea2646970667358221220498bc169f26e81dd492e49cff6f4961218b8c2c0b216c29cd26a479cfc14ba9664736f6c634300081c0033",
  "linkReferences": {},
  "deployedLinkReferences": {}
}